:020000000328D3
:100006008316031388018312880108140B30FB0042
:100016002630FC005D30FD00FD0B0F28FC0B0F2881
:10002600FB0B0F2800000000081088140B30FB00A3
:100036002630FC005D30FD00FD0B1F28FC0B1F2841
:10004600FB0B1F2800000000881008150B30FB0072
:100056002630FC005D30FD00FD0B2F28FC0B2F2801
:10006600FB0B2F2800000000081188150B30FB0041
:100076002630FC005D30FD00FD0B3F28FC0B3F28C1
:10008600FB0B3F2800000000881108160B30FB0010
:100096002630FC005D30FD00FD0B4F28FC0B4F2881
:1000A600FB0B4F2800000000081288160B30FB00DF
:1000B6002630FC005D30FD00FD0B5F28FC0B5F2841
:1000C600FB0B5F2800000000881208170B30FB00AE
:1000D6002630FC005D30FD00FD0B6F28FC0B6F2801
:1000E600FB0B6F2800000000081388170B30FB007D
:1000F6002630FC005D30FD00FD0B7F28FC0B7F28C1
:0E010600FB0B7F2800000000881306288928C4
:02400E004A2F37
:00000001FF
