:020000004E2888
:10000800FF00030E8301A6000A08A5008A017B08E9
:10001800A2007C08A1007D08A0008B1C41280815BF
:100028000D30FB00AF30FC00B630FD00FD0B1A2888
:10003800FC0B1A28FB0B1A280000081188150D3034
:10004800FB00AF30FC00B630FD00FD0B2928FC0B8F
:100058002928FB0B29280000881108160D30FB0001
:10006800AF30FC00B630FD00FD0B3828FC0B3828FB
:10007800FB0B3828000008128B102208FB0021080F
:10008800FC002008FD0025088A00260E8300FF0ECC
:040098007F0E0900CE
:10009C008316031388130813881208128811081189
:1000AC0001178B170B168312081188110812881769
:1000BC00081788160D30FB00AF30FC00B630FD0081
:1000CC00FD0B6628FC0B6628FB0B662800008813CA
:1000DC00081388120D30FB00AF30FC00B630FD0069
:1000EC00FD0B7628FC0B7628FB0B76280000592894
:0200FC007E285C
:02400E004A2F37
:00000001FF
