:02000000A12934
:10000600831203130610861406158615061A1E2873
:100016000D30FB00AF30FC00B630FD00FD0B1128A3
:10002600FC0B1128FB0B11280000061A1B281828A8
:100036003130F0001329861A33280D30FB00AF301B
:10004600FC00B630FD00FD0B2628FC0B2628FB0B1A
:1000560026280000861A30282D283230F000132971
:10006600061B48280D30FB00AF30FC00B630FD0003
:10007600FD0B3B28FC0B3B28FB0B3B280000061B1B
:10008600452842283330F000132906148610061539
:100096008615061A61280D30FB00AF30FC00B6301D
:1000A600FD00FD0B5428FC0B5428FB0B54280000C4
:1000B600061A5E285B283430F0001329861A762843
:1000C6000D30FB00AF30FC00B630FD00FD0B69289B
:1000D600FC0B6928FB0B69280000861A7328702818
:1000E6003530F0001329061B8B280D30FB00AF308E
:1000F600FC00B630FD00FD0B7E28FC0B7E28FB0BBA
:100106007E280000061B882885283630F000132933
:100116000614861406118615061AA4280D30FB004F
:10012600AF30FC00B630FD00FD0B9728FC0B97287E
:10013600FB0B97280000061AA1289E283730F000EE
:100146001329861AB9280D30FB00AF30FC00B630F3
:10015600FD00FD0BAC28FC0BAC28FB0BAC2800000B
:10016600861AB628B3283830F0001329061BCE2885
:100176000D30FB00AF30FC00B630FD00FD0BC12892
:10018600FC0BC128FB0BC1280000061BCB28C82886
:100196003930F00013290614861406158611061A3E
:1001A600E7280D30FB00AF30FC00B630FD00FD0B3C
:1001B600DA28FC0BDA28FB0BDA280000061AE428FA
:1001C600E1285330F0001329861AFC280D30FB0075
:1001D600AF30FC00B630FD00FD0BEF28FC0BEF281E
:1001E600FB0BEF280000861AF928F6283030F000BD
:1001F6001329061B11290D30FB00AF30FC00B63069
:10020600FD00FD0B0429FC0B0429FB0B042900004F
:10021600061B0E290B294830F00013296E30F0001A
:020226000800CE
:0E0228008312031323088A00220882000800B4
:10023600F030831603138600831286017F308316FF
:04024600810008002B
:10024A0014218A110A128000840AA20A0319A30A35
:08025A00F003031D2529080033
:10026200831203132408303A031D3929A001A10186
:100272002408313A031D41290130A0000030A100B9
:100282002408323A031D49290230A0000030A1009F
:100292002408333A031D51290330A0000030A10085
:1002A2002408343A031D59290430A0000030A1006B
:1002B2002408353A031D61290530A0000030A10051
:1002C2002408363A031D69290630A0000030A10037
:1002D2002408373A031D71290730A0000030A1001D
:1002E2002408383A031D79290830A0000030A10003
:1002F2002408393A031D81290930A0000030A100E9
:100302002408533A031D89290A30A0000030A100B5
:100312002408483A031D91290B30A0000030A100A7
:020322000800D1
:100324006E3083120313A40024086E3A031D9E2921
:0E03340003207008A40096292408F000080099
:1003420083120313A001A10183168801831288017D
:100352001B2192217008A400312120088800AA29BB
:02036200B129BF
:02400E004A2F37
:00000001FF
