:020000004A288C
:10000800FF00030E8301A7000A08A6008A017B08E7
:10001800A2007C08A1007D08A0000B1C2A288811DA
:100028000811881008100608230688000608A3008F
:100038001A30FB005E30FC006E30FD00FD0B2228FC
:10004800FC0B2228FB0B222800000B102208FB00C7
:100058002108FC002008FD0026088A00270E8300DE
:06006800FF0E7F0E0900EF
:0E006E008312031325088A002408820008006C
:10007C0037208A110A128000840AA40A0319A50ADF
:08008C00F003031D3E280800EB
:1000940083120313A301831688130813881208120A
:1000A40088110811881008108B178B158312881378
:1000B40008138812081288150815881408140D30BE
:1000C400FB00AF30FC00B630FD00FD0B6728FC0BD5
:1000D4006728FB0B67280000881108118810081096
:1000E4000D30FB00AF30FC00B630FD00FD0B78286E
:0E00F400FC0B7828FB0B782800005828802889
:02400E004A2F37
:00000001FF
