:020000000329D2
:0E000600213083120313FD00FD0B07280800B4
:100014000F3083120313FC004730FD00FD0B102842
:0A002400FC0B10280000000008008B
:06002E00000000000800C4
:1000340083120313C41B2028871321288717441B0A
:100044002528071326280717C41A2A2887122B28BD
:100054008716441A2F280712302807163E1834280A
:10006400071535280711871517208711C4193C284F
:1000740087133D2887174419412807134228071777
:10008400C418462887124728871644184B28071295
:100094004C2807163E1850280715512807118715B4
:1000A400172087113E1C58280A20592803200800CD
:0E00B400831203133D088A003C0882000800F6
:1000C200831203133E104308C4001A203E14080092
:1000D2008316031387110711071287120713871359
:1000E20083128711071187130713871207120A2039
:1000F2000A200A20871607168715172087110A205B
:100102008715172087110A208715172087110A20C3
:1001120007128715172087110A20871517208711C4
:10012200871287178715172087110A20871307164A
:1001320087151720871107128715172087110A20A4
:1001420087151720871107168715172087110A2090
:1001520007128715172087118717071787160716A3
:0C0162008715172087110A203E140800A2
:10016E00C928803083120313BF00DC28C030BF00C3
:10017E00DC289430BF00DC28D430BF00DC2880306F
:10018E00BF00DC28831203133F08013A0319B82875
:10019E003F08023A0319BD283F08033A0319C02845
:1001AE003F08043A0319C328C6284003F0003F084D
:1001BE00F0077008BF007008C4001A203E10C2017C
:1001CE0042084107840000080319F5284208410738
:1001DE0084000008C3006120C20AE7283E1408000C
:1001EE005A208A110A128000840ABC0A0319BD0A19
:0801FE00F003031DF7280800BF
:100206004D3083120313A0002E30A1002030A2002F
:100216005730A3006130A4007330A5006930A600F2
:100226006630A7002030A8004930A9006A30AA002D
:100236006130AB007A30AC00AD013030AE00313009
:10024600AF002D30B0003130B1003330B200323063
:10025600B3003130B4003830B5003230B6002D303E
:10026600B7003030B8003230B9003530BA00BB01C3
:1002760069200130C4001A200C30C4001A20013055
:10028600BF000130C0002030C100B7200230BF00DF
:0C0296000130C0002E30C100B7205029FC
:02400E004A2F37
:00000001FF
